{
  "contractName": "Verification",
  "abi": [
    {
      "inputs": [],
      "stateMutability": "nonpayable",
      "type": "constructor"
    },
    {
      "anonymous": false,
      "inputs": [
        {
          "indexed": true,
          "internalType": "address",
          "name": "_exporter",
          "type": "address"
        },
        {
          "indexed": false,
          "internalType": "string",
          "name": "_ipfsHash",
          "type": "string"
        }
      ],
      "name": "addHash",
      "type": "event"
    },
    {
      "inputs": [],
      "name": "count_Exporters",
      "outputs": [
        {
          "internalType": "uint16",
          "name": "",
          "type": "uint16"
        }
      ],
      "stateMutability": "view",
      "type": "function",
      "constant": true
    },
    {
      "inputs": [],
      "name": "count_hashes",
      "outputs": [
        {
          "internalType": "uint16",
          "name": "",
          "type": "uint16"
        }
      ],
      "stateMutability": "view",
      "type": "function",
      "constant": true
    },
    {
      "inputs": [],
      "name": "owner",
      "outputs": [
        {
          "internalType": "address",
          "name": "",
          "type": "address"
        }
      ],
      "stateMutability": "view",
      "type": "function",
      "constant": true
    },
    {
      "inputs": [
        {
          "internalType": "address",
          "name": "_add",
          "type": "address"
        },
        {
          "internalType": "string",
          "name": "_info",
          "type": "string"
        }
      ],
      "name": "add_Exporter",
      "outputs": [],
      "stateMutability": "nonpayable",
      "type": "function"
    },
    {
      "inputs": [
        {
          "internalType": "address",
          "name": "_add",
          "type": "address"
        }
      ],
      "name": "delete_Exporter",
      "outputs": [],
      "stateMutability": "nonpayable",
      "type": "function"
    },
    {
      "inputs": [
        {
          "internalType": "address",
          "name": "_add",
          "type": "address"
        },
        {
          "internalType": "string",
          "name": "_newInfo",
          "type": "string"
        }
      ],
      "name": "alter_Exporter",
      "outputs": [],
      "stateMutability": "nonpayable",
      "type": "function"
    },
    {
      "inputs": [
        {
          "internalType": "address",
          "name": "_newOwner",
          "type": "address"
        }
      ],
      "name": "changeOwner",
      "outputs": [],
      "stateMutability": "nonpayable",
      "type": "function"
    },
    {
      "inputs": [
        {
          "internalType": "bytes32",
          "name": "hash",
          "type": "bytes32"
        },
        {
          "internalType": "string",
          "name": "_ipfs",
          "type": "string"
        }
      ],
      "name": "addDocHash",
      "outputs": [],
      "stateMutability": "nonpayable",
      "type": "function"
    },
    {
      "inputs": [
        {
          "internalType": "bytes32",
          "name": "_hash",
          "type": "bytes32"
        }
      ],
      "name": "findDocHash",
      "outputs": [
        {
          "internalType": "uint256",
          "name": "",
          "type": "uint256"
        },
        {
          "internalType": "uint256",
          "name": "",
          "type": "uint256"
        },
        {
          "internalType": "string",
          "name": "",
          "type": "string"
        },
        {
          "internalType": "string",
          "name": "",
          "type": "string"
        }
      ],
      "stateMutability": "view",
      "type": "function",
      "constant": true
    },
    {
      "inputs": [
        {
          "internalType": "bytes32",
          "name": "_hash",
          "type": "bytes32"
        }
      ],
      "name": "deleteHash",
      "outputs": [],
      "stateMutability": "nonpayable",
      "type": "function"
    },
    {
      "inputs": [
        {
          "internalType": "address",
          "name": "_add",
          "type": "address"
        }
      ],
      "name": "getExporterInfo",
      "outputs": [
        {
          "internalType": "string",
          "name": "",
          "type": "string"
        }
      ],
      "stateMutability": "view",
      "type": "function",
      "constant": true
    }
  ],
  "bytecode": "0x608060405260008060006101000a81548161ffff021916908361ffff16021790555060008060026101000a81548161ffff021916908361ffff16021790555034801561004a57600080fd5b5033600060046101000a81548173ffffffffffffffffffffffffffffffffffffffff021916908373ffffffffffffffffffffffffffffffffffffffff160217905550611a678061009b6000396000f3fe608060405234801561001057600080fd5b50600436106100a95760003560e01c806363f0bfce1161007157806363f0bfce146101675780636ed73e48146101835780638da5cb5b146101a1578063a6f9dae1146101bf578063bf3ccf48146101db578063cf3457bf146101f7576100a9565b806305c8dc19146100ae57806324ac89cb146100de57806343f6f548146100fa5780634cf00d3f14610118578063505cd5d01461014b575b600080fd5b6100c860048036038101906100c39190610fce565b610213565b6040516100d5919061108b565b60405180910390f35b6100f860048036038101906100f39190610fce565b6102e7565b005b6101026104a9565b60405161010f91906110ca565b60405180910390f35b610132600480360381019061012d919061111b565b6104bd565b6040516101429493929190611161565b60405180910390f35b61016560048036038101906101609190611219565b610644565b005b610181600480360381019061017c919061111b565b61077e565b005b61018b610981565b60405161019891906110ca565b60405180910390f35b6101a9610993565b6040516101b69190611288565b60405180910390f35b6101d960048036038101906101d49190610fce565b6109b9565b005b6101f560048036038101906101f091906112a3565b610acc565b005b610211600480360381019061020c9190611219565b610db0565b005b6060600260008373ffffffffffffffffffffffffffffffffffffffff1673ffffffffffffffffffffffffffffffffffffffff168152602001908152602001600020600101805461026290611332565b80601f016020809104026020016040519081016040528092919081815260200182805461028e90611332565b80156102db5780601f106102b0576101008083540402835291602001916102db565b820191906000526020600020905b8154815290600101906020018083116102be57829003601f168201915b50505050509050919050565b600060049054906101000a900473ffffffffffffffffffffffffffffffffffffffff1673ffffffffffffffffffffffffffffffffffffffff163373ffffffffffffffffffffffffffffffffffffffff1614610377576040517f08c379a000000000000000000000000000000000000000000000000000000000815260040161036e906113af565b60405180910390fd5b6000600260008373ffffffffffffffffffffffffffffffffffffffff1673ffffffffffffffffffffffffffffffffffffffff16815260200190815260200160002060000154036103ca576103c96113cf565b5b6000600260008373ffffffffffffffffffffffffffffffffffffffff1673ffffffffffffffffffffffffffffffffffffffff1681526020019081526020016000206000018190555060405180602001604052806000815250600260008373ffffffffffffffffffffffffffffffffffffffff1673ffffffffffffffffffffffffffffffffffffffff168152602001908152602001600020600101908161047091906115d9565b5060008081819054906101000a900461ffff1661048c906116da565b91906101000a81548161ffff021916908361ffff16021790555050565b600060029054906101000a900461ffff1681565b60008060608060016000868152602001908152602001600020600001546001600087815260200190815260200160002060010154600160008881526020019081526020016000206002016001600089815260200190815260200160002060030181805461052990611332565b80601f016020809104026020016040519081016040528092919081815260200182805461055590611332565b80156105a25780601f10610577576101008083540402835291602001916105a2565b820191906000526020600020905b81548152906001019060200180831161058557829003601f168201915b505050505091508080546105b590611332565b80601f01602080910402602001604051908101604052809291908181526020018280546105e190611332565b801561062e5780601f106106035761010080835404028352916020019161062e565b820191906000526020600020905b81548152906001019060200180831161061157829003601f168201915b5050505050905093509350935093509193509193565b600060049054906101000a900473ffffffffffffffffffffffffffffffffffffffff1673ffffffffffffffffffffffffffffffffffffffff163373ffffffffffffffffffffffffffffffffffffffff16146106d4576040517f08c379a00000000000000000000000000000000000000000000000000000000081526004016106cb906113af565b60405180910390fd5b6000600260008573ffffffffffffffffffffffffffffffffffffffff1673ffffffffffffffffffffffffffffffffffffffff1681526020019081526020016000206000015403610727576107266113cf565b5b8181600260008673ffffffffffffffffffffffffffffffffffffffff1673ffffffffffffffffffffffffffffffffffffffff168152602001908152602001600020600101918261077892919061170e565b50505050565b80600160008281526020019081526020016000206002016040516020016107a5919061186c565b60405160208183030381529060405280519060200120600260003373ffffffffffffffffffffffffffffffffffffffff1673ffffffffffffffffffffffffffffffffffffffff16815260200190815260200160002060010160405160200161080d919061186c565b6040516020818303038152906040528051906020012014610863576040517f08c379a000000000000000000000000000000000000000000000000000000000815260040161085a906118f5565b60405180910390fd5b6000600260003373ffffffffffffffffffffffffffffffffffffffff1673ffffffffffffffffffffffffffffffffffffffff16815260200190815260200160002060000154036108e8576040517f08c379a00000000000000000000000000000000000000000000000000000000081526004016108df90611987565b60405180910390fd5b600060016000848152602001908152602001600020600101540361090f5761090e6113cf565b5b60006001600084815260200190815260200160002060000181905550600060016000848152602001908152602001600020600101819055506000600281819054906101000a900461ffff16610963906116da565b91906101000a81548161ffff021916908361ffff1602179055505050565b60008054906101000a900461ffff1681565b600060049054906101000a900473ffffffffffffffffffffffffffffffffffffffff1681565b600060049054906101000a900473ffffffffffffffffffffffffffffffffffffffff1673ffffffffffffffffffffffffffffffffffffffff163373ffffffffffffffffffffffffffffffffffffffff1614610a49576040517f08c379a0000000000000000000000000000000000000000000000000000000008152600401610a40906113af565b60405180910390fd5b80600073ffffffffffffffffffffffffffffffffffffffff168173ffffffffffffffffffffffffffffffffffffffff1603610a8757610a866113cf565b5b81600060046101000a81548173ffffffffffffffffffffffffffffffffffffffff021916908373ffffffffffffffffffffffffffffffffffffffff1602179055505050565b6000600260003373ffffffffffffffffffffffffffffffffffffffff1673ffffffffffffffffffffffffffffffffffffffff1681526020019081526020016000206000015403610b51576040517f08c379a0000000000000000000000000000000000000000000000000000000008152600401610b4890611987565b60405180910390fd5b60006001600085815260200190815260200160002060000154148015610b8d575060006001600085815260200190815260200160002060010154145b610b9a57610b996113cf565b5b60006040518060800160405280438152602001428152602001600260003373ffffffffffffffffffffffffffffffffffffffff1673ffffffffffffffffffffffffffffffffffffffff1681526020019081526020016000206001018054610c0090611332565b80601f0160208091040260200160405190810160405280929190818152602001828054610c2c90611332565b8015610c795780601f10610c4e57610100808354040283529160200191610c79565b820191906000526020600020905b815481529060010190602001808311610c5c57829003601f168201915b5050505050815260200184848080601f016020809104026020016040519081016040528093929190818152602001838380828437600081840152601f19601f820116905080830192505050505050508152509050806001600086815260200190815260200160002060008201518160000155602082015181600101556040820151816002019081610d0a91906115d9565b506060820151816003019081610d2091906115d9565b509050506000600281819054906101000a900461ffff16610d40906119a7565b91906101000a81548161ffff021916908361ffff1602179055503373ffffffffffffffffffffffffffffffffffffffff167f331f916dac8170a5e3a8a5c82c9de7950bb6cadfb098253c080cb72851b264708484604051610da2929190611a0d565b60405180910390a250505050565b600060049054906101000a900473ffffffffffffffffffffffffffffffffffffffff1673ffffffffffffffffffffffffffffffffffffffff163373ffffffffffffffffffffffffffffffffffffffff1614610e40576040517f08c379a0000000000000000000000000000000000000000000000000000000008152600401610e37906113af565b60405180910390fd5b6000600260008573ffffffffffffffffffffffffffffffffffffffff1673ffffffffffffffffffffffffffffffffffffffff1681526020019081526020016000206000015414610e9357610e926113cf565b5b43600260008573ffffffffffffffffffffffffffffffffffffffff1673ffffffffffffffffffffffffffffffffffffffff168152602001908152602001600020600001819055508181600260008673ffffffffffffffffffffffffffffffffffffffff1673ffffffffffffffffffffffffffffffffffffffff1681526020019081526020016000206001019182610f2b92919061170e565b5060008081819054906101000a900461ffff16610f47906119a7565b91906101000a81548161ffff021916908361ffff160217905550505050565b600080fd5b600080fd5b600073ffffffffffffffffffffffffffffffffffffffff82169050919050565b6000610f9b82610f70565b9050919050565b610fab81610f90565b8114610fb657600080fd5b50565b600081359050610fc881610fa2565b92915050565b600060208284031215610fe457610fe3610f66565b5b6000610ff284828501610fb9565b91505092915050565b600081519050919050565b600082825260208201905092915050565b60005b8381101561103557808201518184015260208101905061101a565b60008484015250505050565b6000601f19601f8301169050919050565b600061105d82610ffb565b6110678185611006565b9350611077818560208601611017565b61108081611041565b840191505092915050565b600060208201905081810360008301526110a58184611052565b905092915050565b600061ffff82169050919050565b6110c4816110ad565b82525050565b60006020820190506110df60008301846110bb565b92915050565b6000819050919050565b6110f8816110e5565b811461110357600080fd5b50565b600081359050611115816110ef565b92915050565b60006020828403121561113157611130610f66565b5b600061113f84828501611106565b91505092915050565b6000819050919050565b61115b81611148565b82525050565b60006080820190506111766000830187611152565b6111836020830186611152565b81810360408301526111958185611052565b905081810360608301526111a98184611052565b905095945050505050565b600080fd5b600080fd5b600080fd5b60008083601f8401126111d9576111d86111b4565b5b8235905067ffffffffffffffff8111156111f6576111f56111b9565b5b602083019150836001820283011115611212576112116111be565b5b9250929050565b60008060006040848603121561123257611231610f66565b5b600061124086828701610fb9565b935050602084013567ffffffffffffffff81111561126157611260610f6b565b5b61126d868287016111c3565b92509250509250925092565b61128281610f90565b82525050565b600060208201905061129d6000830184611279565b92915050565b6000806000604084860312156112bc576112bb610f66565b5b60006112ca86828701611106565b935050602084013567ffffffffffffffff8111156112eb576112ea610f6b565b5b6112f7868287016111c3565b92509250509250925092565b7f4e487b7100000000000000000000000000000000000000000000000000000000600052602260045260246000fd5b6000600282049050600182168061134a57607f821691505b60208210810361135d5761135c611303565b5b50919050565b7f43616c6c6572206973206e6f7420746865206f776e6572000000000000000000600082015250565b6000611399601783611006565b91506113a482611363565b602082019050919050565b600060208201905081810360008301526113c88161138c565b9050919050565b7f4e487b7100000000000000000000000000000000000000000000000000000000600052600160045260246000fd5b7f4e487b7100000000000000000000000000000000000000000000000000000000600052604160045260246000fd5b60008190508160005260206000209050919050565b60006020601f8301049050919050565b600082821b905092915050565b60006008830261148f7fffffffffffffffffffffffffffffffffffffffffffffffffffffffffffffffff82611452565b6114998683611452565b95508019841693508086168417925050509392505050565b6000819050919050565b60006114d66114d16114cc84611148565b6114b1565b611148565b9050919050565b6000819050919050565b6114f0836114bb565b6115046114fc826114dd565b84845461145f565b825550505050565b600090565b61151961150c565b6115248184846114e7565b505050565b5b818110156115485761153d600082611511565b60018101905061152a565b5050565b601f82111561158d5761155e8161142d565b61156784611442565b81016020851015611576578190505b61158a61158285611442565b830182611529565b50505b505050565b600082821c905092915050565b60006115b060001984600802611592565b1980831691505092915050565b60006115c9838361159f565b9150826002028217905092915050565b6115e282610ffb565b67ffffffffffffffff8111156115fb576115fa6113fe565b5b6116058254611332565b61161082828561154c565b600060209050601f8311600181146116435760008415611631578287015190505b61163b85826115bd565b8655506116a3565b601f1984166116518661142d565b60005b8281101561167957848901518255600182019150602085019450602081019050611654565b868310156116965784890151611692601f89168261159f565b8355505b6001600288020188555050505b505050505050565b7f4e487b7100000000000000000000000000000000000000000000000000000000600052601160045260246000fd5b60006116e5826110ad565b9150600082036116f8576116f76116ab565b5b600182039050919050565b600082905092915050565b6117188383611703565b67ffffffffffffffff811115611731576117306113fe565b5b61173b8254611332565b61174682828561154c565b6000601f8311600181146117755760008415611763578287013590505b61176d85826115bd565b8655506117d5565b601f1984166117838661142d565b60005b828110156117ab57848901358255600182019150602085019450602081019050611786565b868310156117c857848901356117c4601f89168261159f565b8355505b6001600288020188555050505b50505050505050565b600081905092915050565b600081546117f681611332565b61180081866117de565b9450600182166000811461181b576001811461183057611863565b60ff1983168652811515820286019350611863565b6118398561142d565b60005b8381101561185b5781548189015260018201915060208101905061183c565b838801955050505b50505092915050565b600061187882846117e9565b915081905092915050565b7f43616c6c6572206973206e6f742020617574686f726973656420746f2065646960008201527f74207468697320646f63756d656e740000000000000000000000000000000000602082015250565b60006118df602f83611006565b91506118ea82611883565b604082019050919050565b6000602082019050818103600083015261190e816118d2565b9050919050565b7f43616c6c6572206e6f7420617574686f726973656420746f2061646420646f6360008201527f756d656e74730000000000000000000000000000000000000000000000000000602082015250565b6000611971602683611006565b915061197c82611915565b604082019050919050565b600060208201905081810360008301526119a081611964565b9050919050565b60006119b2826110ad565b915061ffff82036119c6576119c56116ab565b5b600182019050919050565b82818337600083830152505050565b60006119ec8385611006565b93506119f98385846119d1565b611a0283611041565b840190509392505050565b60006020820190508181036000830152611a288184866119e0565b9050939250505056fea264697066735822122069313d32bc30ce4b7dfa8716273f2c0ba250bc3a17ea153a825038a87d411aff64736f6c63430008130033",
  "immutableReferences": {},
  "source": "// SPDX-License-Identifier: GPL-3.0\r\n\r\npragma solidity >=0.7.0 <0.9.0;\r\n\r\ncontract Verification {\r\n    constructor() { owner = msg.sender; }\r\n    uint16 public count_Exporters =0;\r\n    uint16 public count_hashes=0;\r\n    address public owner;\r\n\r\n    struct  Record  {\r\n        uint blockNumber; \r\n        uint minetime; \r\n        string info;\r\n        string ipfs_hash;\r\n         }\r\n    struct Exporter_Record{\r\n        uint blockNumber;\r\n        string info;\r\n         }\r\n     mapping (bytes32  => Record) private docHashes;\r\n     mapping (address => Exporter_Record) private Exporters;\r\n     \r\n//---------------------------------------------------------------------------------------------------------//\r\n    modifier onlyOwner() {\r\n            if (msg.sender != owner) {\r\n            revert(\"Caller is not the owner\"); }_; }\r\n\r\n    modifier validAddress(address _addr) {\r\n            assert(_addr != address(0)); _; }\r\n\r\n   \r\n    modifier authorised_Exporter(bytes32  _doc){\r\n\r\n         if (keccak256(abi.encodePacked((Exporters[msg.sender].info )))!= keccak256(abi.encodePacked((docHashes[_doc].info))))\r\n      \r\n        revert(\"Caller is not  authorised to edit this document\"); \r\n         _; }\r\n\r\n    modifier canAddHash(){\r\n        require(Exporters[msg.sender].blockNumber!=0,\"Caller not authorised to add documents\");   _; }\r\n\r\n//---------------------------------------------------------------------------------------------------------//\r\n\r\n    function add_Exporter(address _add,string calldata _info) external\r\n    onlyOwner(){ \r\n        assert(Exporters[_add].blockNumber==0);\r\n         \r\n          Exporters[_add].blockNumber = block.number;\r\n          Exporters[_add].info = _info;\r\n          ++count_Exporters;\r\n        \r\n        }\r\n\r\n    function delete_Exporter(address _add) external  \r\n    onlyOwner\r\n    {\r\n        assert(Exporters[_add].blockNumber!=0);\r\n        \r\n        Exporters[_add].blockNumber=0;\r\n        Exporters[_add].info=\"\";\r\n        --count_Exporters;\r\n        }\r\n        \r\n    function alter_Exporter(address _add,string calldata    _newInfo) public\r\n    onlyOwner()\r\n     { \r\n          assert(Exporters[_add].blockNumber!=0);\r\n             Exporters[_add].info=_newInfo; }\r\n\r\n    function changeOwner(address _newOwner) public \r\n        onlyOwner  validAddress(_newOwner)   {  owner = _newOwner; }\r\n\r\n        event addHash(address indexed _exporter,string _ipfsHash);\r\n    function addDocHash (bytes32  hash,string calldata _ipfs) public \r\n      canAddHash\r\n      {\r\n            assert(docHashes[hash].blockNumber==0 && docHashes[hash].minetime==0);\r\n            Record memory  newRecord = \r\n            Record(block.number,block.timestamp,Exporters[msg.sender].info,_ipfs);\r\n            docHashes[hash] = newRecord; \r\n            ++count_hashes;\r\n            emit addHash(msg.sender,_ipfs);\r\n      }\r\n      \r\n\r\n    function findDocHash (bytes32 _hash) \r\n    external  view  returns (uint,uint,string memory,string memory) {\r\n       \r\n        return (docHashes[_hash].blockNumber,docHashes[_hash].minetime,docHashes[_hash].info,docHashes[_hash].ipfs_hash );\r\n        }\r\n\r\n    function deleteHash (bytes32 _hash) public\r\n    authorised_Exporter(_hash)\r\n    canAddHash\r\n    {\r\n    assert(docHashes[_hash].minetime!=0);\r\n    docHashes[_hash].blockNumber=0;\r\n    docHashes[_hash].minetime=0;\r\n    \r\n    --count_hashes;\r\n    \r\n    }\r\n    \r\n    function  getExporterInfo(address _add) external view returns(string memory){\r\n\r\n        return (Exporters[_add].info);\r\n    }\r\n}",
  "sourcePath": "C:\\Users\\gopig\\Downloads\\BlockChain-Based-Document-Verfication-With-IPFS-main\\BlockChain-Based-Document-Verfication-With-IPFS-main\\contracts\\Verification.sol",
  "compiler": {
    "name": "solc",
    "version": "0.8.19+commit.7dd6d404.Emscripten.clang"
  },
  "schemaVersion": "3.4.16",
  "updatedAt": "2025-03-19T17:14:49.377Z",
  "networkType": "ethereum",
  "devdoc": {
    "kind": "dev",
    "methods": {},
    "version": 1
  },
  "userdoc": {
    "kind": "user",
    "methods": {},
    "version": 1
  }
}